{
    "contractName": "HomestayNFT",
    "abi": [
        {
            "inputs": [
                {
                    "internalType": "uint256",
                    "name": "noRooms",
                    "type": "uint256"
                },
                {
                    "internalType": "uint256",
                    "name": "firstTwoHourPrice",
                    "type": "uint256"
                },
                {
                    "internalType": "uint256",
                    "name": "hourPrice",
                    "type": "uint256"
                },
                {
                    "internalType": "uint256",
                    "name": "dayPrice",
                    "type": "uint256"
                },
                {
                    "internalType": "uint256",
                    "name": "monthPrice",
                    "type": "uint256"
                }
            ],
            "stateMutability": "nonpayable",
            "type": "constructor"
        },
        {
            "anonymous": false,
            "inputs": [
                {
                    "indexed": true,
                    "internalType": "address",
                    "name": "owner",
                    "type": "address"
                },
                {
                    "indexed": true,
                    "internalType": "address",
                    "name": "approved",
                    "type": "address"
                },
                {
                    "indexed": true,
                    "internalType": "uint256",
                    "name": "tokenId",
                    "type": "uint256"
                }
            ],
            "name": "Approval",
            "type": "event"
        },
        {
            "anonymous": false,
            "inputs": [
                {
                    "indexed": true,
                    "internalType": "address",
                    "name": "owner",
                    "type": "address"
                },
                {
                    "indexed": true,
                    "internalType": "address",
                    "name": "operator",
                    "type": "address"
                },
                {
                    "indexed": false,
                    "internalType": "bool",
                    "name": "approved",
                    "type": "bool"
                }
            ],
            "name": "ApprovalForAll",
            "type": "event"
        },
        {
            "anonymous": false,
            "inputs": [
                {
                    "indexed": true,
                    "internalType": "uint256",
                    "name": "tokenId",
                    "type": "uint256"
                },
                {
                    "components": [
                        {
                            "internalType": "uint256",
                            "name": "deviceId",
                            "type": "uint256"
                        },
                        {
                            "internalType": "bool",
                            "name": "status",
                            "type": "bool"
                        },
                        {
                            "internalType": "uint256",
                            "name": "timestamp",
                            "type": "uint256"
                        }
                    ],
                    "indexed": false,
                    "internalType": "struct HomestayNFT.logIoTdevice[]",
                    "name": "devices",
                    "type": "tuple[]"
                }
            ],
            "name": "Checkout",
            "type": "event"
        },
        {
            "anonymous": false,
            "inputs": [
                {
                    "indexed": true,
                    "internalType": "uint256",
                    "name": "tokenId",
                    "type": "uint256"
                },
                {
                    "indexed": false,
                    "internalType": "uint256",
                    "name": "deviceId",
                    "type": "uint256"
                },
                {
                    "indexed": false,
                    "internalType": "bool",
                    "name": "status",
                    "type": "bool"
                },
                {
                    "indexed": false,
                    "internalType": "uint256",
                    "name": "timestamp",
                    "type": "uint256"
                }
            ],
            "name": "LogIoTDevice",
            "type": "event"
        },
        {
            "anonymous": false,
            "inputs": [
                {
                    "indexed": true,
                    "internalType": "address",
                    "name": "provider",
                    "type": "address"
                },
                {
                    "indexed": true,
                    "internalType": "address",
                    "name": "renter",
                    "type": "address"
                },
                {
                    "indexed": false,
                    "internalType": "uint256",
                    "name": "roomId",
                    "type": "uint256"
                },
                {
                    "indexed": false,
                    "internalType": "uint256",
                    "name": "rentAmount",
                    "type": "uint256"
                },
                {
                    "indexed": false,
                    "internalType": "uint256",
                    "name": "startTimestamp",
                    "type": "uint256"
                },
                {
                    "indexed": false,
                    "internalType": "uint256",
                    "name": "endTimestamp",
                    "type": "uint256"
                },
                {
                    "indexed": false,
                    "internalType": "uint256",
                    "name": "createTimestamp",
                    "type": "uint256"
                },
                {
                    "indexed": true,
                    "internalType": "uint256",
                    "name": "tokenId",
                    "type": "uint256"
                },
                {
                    "indexed": false,
                    "internalType": "bool",
                    "name": "isCancelled",
                    "type": "bool"
                }
            ],
            "name": "Mint",
            "type": "event"
        },
        {
            "anonymous": false,
            "inputs": [
                {
                    "indexed": true,
                    "internalType": "address",
                    "name": "previousOwner",
                    "type": "address"
                },
                {
                    "indexed": true,
                    "internalType": "address",
                    "name": "newOwner",
                    "type": "address"
                }
            ],
            "name": "OwnershipTransferred",
            "type": "event"
        },
        {
            "anonymous": false,
            "inputs": [
                {
                    "indexed": true,
                    "internalType": "address",
                    "name": "from",
                    "type": "address"
                },
                {
                    "indexed": true,
                    "internalType": "address",
                    "name": "to",
                    "type": "address"
                },
                {
                    "indexed": true,
                    "internalType": "uint256",
                    "name": "tokenId",
                    "type": "uint256"
                }
            ],
            "name": "Transfer",
            "type": "event"
        },
        {
            "inputs": [
                {
                    "internalType": "uint256",
                    "name": "",
                    "type": "uint256"
                },
                {
                    "internalType": "uint256",
                    "name": "",
                    "type": "uint256"
                }
            ],
            "name": "_logIoTdevices",
            "outputs": [
                {
                    "internalType": "uint256",
                    "name": "deviceId",
                    "type": "uint256"
                },
                {
                    "internalType": "bool",
                    "name": "status",
                    "type": "bool"
                },
                {
                    "internalType": "uint256",
                    "name": "timestamp",
                    "type": "uint256"
                }
            ],
            "stateMutability": "view",
            "type": "function"
        },
        {
            "inputs": [
                {
                    "internalType": "uint256",
                    "name": "",
                    "type": "uint256"
                }
            ],
            "name": "_nfts",
            "outputs": [
                {
                    "internalType": "address",
                    "name": "provider",
                    "type": "address"
                },
                {
                    "internalType": "address",
                    "name": "renter",
                    "type": "address"
                },
                {
                    "internalType": "uint256",
                    "name": "roomId",
                    "type": "uint256"
                },
                {
                    "internalType": "uint256",
                    "name": "rentAmount",
                    "type": "uint256"
                },
                {
                    "internalType": "uint256",
                    "name": "startTimestamp",
                    "type": "uint256"
                },
                {
                    "internalType": "uint256",
                    "name": "endTimestamp",
                    "type": "uint256"
                },
                {
                    "internalType": "uint256",
                    "name": "createTimestamp",
                    "type": "uint256"
                },
                {
                    "internalType": "bool",
                    "name": "isCancelled",
                    "type": "bool"
                }
            ],
            "stateMutability": "view",
            "type": "function"
        },
        {
            "inputs": [],
            "name": "_noRooms",
            "outputs": [
                {
                    "internalType": "uint256",
                    "name": "",
                    "type": "uint256"
                }
            ],
            "stateMutability": "view",
            "type": "function"
        },
        {
            "inputs": [
                {
                    "internalType": "uint256",
                    "name": "",
                    "type": "uint256"
                }
            ],
            "name": "_price",
            "outputs": [
                {
                    "internalType": "uint256",
                    "name": "",
                    "type": "uint256"
                }
            ],
            "stateMutability": "view",
            "type": "function"
        },
        {
            "inputs": [
                {
                    "internalType": "address",
                    "name": "to",
                    "type": "address"
                },
                {
                    "internalType": "uint256",
                    "name": "tokenId",
                    "type": "uint256"
                }
            ],
            "name": "approve",
            "outputs": [],
            "stateMutability": "nonpayable",
            "type": "function"
        },
        {
            "inputs": [
                {
                    "internalType": "address",
                    "name": "owner",
                    "type": "address"
                }
            ],
            "name": "balanceOf",
            "outputs": [
                {
                    "internalType": "uint256",
                    "name": "",
                    "type": "uint256"
                }
            ],
            "stateMutability": "view",
            "type": "function"
        },
        {
            "inputs": [
                {
                    "internalType": "uint256",
                    "name": "tokenId",
                    "type": "uint256"
                }
            ],
            "name": "cancelContract",
            "outputs": [],
            "stateMutability": "nonpayable",
            "type": "function"
        },
        {
            "inputs": [
                {
                    "internalType": "uint256",
                    "name": "tokenId",
                    "type": "uint256"
                },
                {
                    "components": [
                        {
                            "internalType": "uint256",
                            "name": "deviceId",
                            "type": "uint256"
                        },
                        {
                            "internalType": "bool",
                            "name": "status",
                            "type": "bool"
                        },
                        {
                            "internalType": "uint256",
                            "name": "timestamp",
                            "type": "uint256"
                        }
                    ],
                    "internalType": "struct HomestayNFT.logIoTdevice[]",
                    "name": "devices",
                    "type": "tuple[]"
                }
            ],
            "name": "checkout",
            "outputs": [],
            "stateMutability": "nonpayable",
            "type": "function"
        },
        {
            "inputs": [],
            "name": "getAllRoomsValidity",
            "outputs": [
                {
                    "internalType": "bool[]",
                    "name": "",
                    "type": "bool[]"
                }
            ],
            "stateMutability": "view",
            "type": "function"
        },
        {
            "inputs": [
                {
                    "internalType": "uint256",
                    "name": "tokenId",
                    "type": "uint256"
                }
            ],
            "name": "getApproved",
            "outputs": [
                {
                    "internalType": "address",
                    "name": "",
                    "type": "address"
                }
            ],
            "stateMutability": "view",
            "type": "function"
        },
        {
            "inputs": [
                {
                    "internalType": "uint256",
                    "name": "tokenId",
                    "type": "uint256"
                }
            ],
            "name": "getLogsForToken",
            "outputs": [
                {
                    "components": [
                        {
                            "internalType": "uint256",
                            "name": "deviceId",
                            "type": "uint256"
                        },
                        {
                            "internalType": "bool",
                            "name": "status",
                            "type": "bool"
                        },
                        {
                            "internalType": "uint256",
                            "name": "timestamp",
                            "type": "uint256"
                        }
                    ],
                    "internalType": "struct HomestayNFT.logIoTdevice[]",
                    "name": "",
                    "type": "tuple[]"
                }
            ],
            "stateMutability": "view",
            "type": "function"
        },
        {
            "inputs": [
                {
                    "internalType": "uint256",
                    "name": "tokenId",
                    "type": "uint256"
                }
            ],
            "name": "getNFTInfo",
            "outputs": [
                {
                    "internalType": "address",
                    "name": "provider",
                    "type": "address"
                },
                {
                    "internalType": "address",
                    "name": "renter",
                    "type": "address"
                },
                {
                    "internalType": "uint256",
                    "name": "roomId",
                    "type": "uint256"
                },
                {
                    "internalType": "uint256",
                    "name": "rentAmount",
                    "type": "uint256"
                },
                {
                    "internalType": "uint256",
                    "name": "startTimestamp",
                    "type": "uint256"
                },
                {
                    "internalType": "uint256",
                    "name": "endTimestamp",
                    "type": "uint256"
                },
                {
                    "internalType": "uint256",
                    "name": "createTimestamp",
                    "type": "uint256"
                },
                {
                    "internalType": "bool",
                    "name": "isCancelled",
                    "type": "bool"
                }
            ],
            "stateMutability": "view",
            "type": "function"
        },
        {
            "inputs": [],
            "name": "getNftsIdOfProvider",
            "outputs": [
                {
                    "internalType": "uint256[]",
                    "name": "",
                    "type": "uint256[]"
                }
            ],
            "stateMutability": "view",
            "type": "function"
        },
        {
            "inputs": [],
            "name": "getNftsIdOfRenter",
            "outputs": [
                {
                    "internalType": "uint256[]",
                    "name": "",
                    "type": "uint256[]"
                }
            ],
            "stateMutability": "view",
            "type": "function"
        },
        {
            "inputs": [],
            "name": "getPrice",
            "outputs": [
                {
                    "internalType": "uint256[4]",
                    "name": "",
                    "type": "uint256[4]"
                }
            ],
            "stateMutability": "view",
            "type": "function"
        },
        {
            "inputs": [
                {
                    "internalType": "uint256",
                    "name": "roomId",
                    "type": "uint256"
                }
            ],
            "name": "getRoomValidity",
            "outputs": [
                {
                    "internalType": "bool",
                    "name": "",
                    "type": "bool"
                }
            ],
            "stateMutability": "view",
            "type": "function"
        },
        {
            "inputs": [],
            "name": "getTime",
            "outputs": [
                {
                    "internalType": "uint256",
                    "name": "",
                    "type": "uint256"
                }
            ],
            "stateMutability": "view",
            "type": "function"
        },
        {
            "inputs": [
                {
                    "internalType": "address",
                    "name": "owner",
                    "type": "address"
                },
                {
                    "internalType": "address",
                    "name": "operator",
                    "type": "address"
                }
            ],
            "name": "isApprovedForAll",
            "outputs": [
                {
                    "internalType": "bool",
                    "name": "",
                    "type": "bool"
                }
            ],
            "stateMutability": "view",
            "type": "function"
        },
        {
            "inputs": [],
            "name": "name",
            "outputs": [
                {
                    "internalType": "string",
                    "name": "",
                    "type": "string"
                }
            ],
            "stateMutability": "view",
            "type": "function"
        },
        {
            "inputs": [],
            "name": "owner",
            "outputs": [
                {
                    "internalType": "address",
                    "name": "",
                    "type": "address"
                }
            ],
            "stateMutability": "view",
            "type": "function"
        },
        {
            "inputs": [
                {
                    "internalType": "uint256",
                    "name": "tokenId",
                    "type": "uint256"
                }
            ],
            "name": "ownerOf",
            "outputs": [
                {
                    "internalType": "address",
                    "name": "",
                    "type": "address"
                }
            ],
            "stateMutability": "view",
            "type": "function"
        },
        {
            "inputs": [],
            "name": "renounceOwnership",
            "outputs": [],
            "stateMutability": "nonpayable",
            "type": "function"
        },
        {
            "inputs": [
                {
                    "internalType": "uint256",
                    "name": "roomId",
                    "type": "uint256"
                },
                {
                    "internalType": "uint256",
                    "name": "rentAmount",
                    "type": "uint256"
                },
                {
                    "internalType": "uint256",
                    "name": "startTimestamp",
                    "type": "uint256"
                },
                {
                    "internalType": "uint256",
                    "name": "endTimestamp",
                    "type": "uint256"
                }
            ],
            "name": "safeMint",
            "outputs": [],
            "stateMutability": "nonpayable",
            "type": "function"
        },
        {
            "inputs": [
                {
                    "internalType": "address",
                    "name": "from",
                    "type": "address"
                },
                {
                    "internalType": "address",
                    "name": "to",
                    "type": "address"
                },
                {
                    "internalType": "uint256",
                    "name": "tokenId",
                    "type": "uint256"
                }
            ],
            "name": "safeTransferFrom",
            "outputs": [],
            "stateMutability": "nonpayable",
            "type": "function"
        },
        {
            "inputs": [
                {
                    "internalType": "address",
                    "name": "from",
                    "type": "address"
                },
                {
                    "internalType": "address",
                    "name": "to",
                    "type": "address"
                },
                {
                    "internalType": "uint256",
                    "name": "tokenId",
                    "type": "uint256"
                },
                {
                    "internalType": "bytes",
                    "name": "data",
                    "type": "bytes"
                }
            ],
            "name": "safeTransferFrom",
            "outputs": [],
            "stateMutability": "nonpayable",
            "type": "function"
        },
        {
            "inputs": [
                {
                    "internalType": "address",
                    "name": "operator",
                    "type": "address"
                },
                {
                    "internalType": "bool",
                    "name": "approved",
                    "type": "bool"
                }
            ],
            "name": "setApprovalForAll",
            "outputs": [],
            "stateMutability": "nonpayable",
            "type": "function"
        },
        {
            "inputs": [
                {
                    "internalType": "uint256[]",
                    "name": "roomIds",
                    "type": "uint256[]"
                },
                {
                    "internalType": "bool[]",
                    "name": "isValid",
                    "type": "bool[]"
                }
            ],
            "name": "setMultipleRoomsValidity",
            "outputs": [],
            "stateMutability": "nonpayable",
            "type": "function"
        },
        {
            "inputs": [
                {
                    "internalType": "uint256",
                    "name": "noRooms",
                    "type": "uint256"
                }
            ],
            "name": "setNoRooms",
            "outputs": [],
            "stateMutability": "nonpayable",
            "type": "function"
        },
        {
            "inputs": [
                {
                    "internalType": "uint256[4]",
                    "name": "price",
                    "type": "uint256[4]"
                }
            ],
            "name": "setPrice",
            "outputs": [],
            "stateMutability": "nonpayable",
            "type": "function"
        },
        {
            "inputs": [
                {
                    "internalType": "uint256",
                    "name": "roomId",
                    "type": "uint256"
                },
                {
                    "internalType": "bool",
                    "name": "isValid",
                    "type": "bool"
                }
            ],
            "name": "setRoomValidity",
            "outputs": [],
            "stateMutability": "nonpayable",
            "type": "function"
        },
        {
            "inputs": [
                {
                    "internalType": "bytes4",
                    "name": "interfaceId",
                    "type": "bytes4"
                }
            ],
            "name": "supportsInterface",
            "outputs": [
                {
                    "internalType": "bool",
                    "name": "",
                    "type": "bool"
                }
            ],
            "stateMutability": "view",
            "type": "function"
        },
        {
            "inputs": [],
            "name": "symbol",
            "outputs": [
                {
                    "internalType": "string",
                    "name": "",
                    "type": "string"
                }
            ],
            "stateMutability": "view",
            "type": "function"
        },
        {
            "inputs": [
                {
                    "internalType": "uint256",
                    "name": "tokenId",
                    "type": "uint256"
                }
            ],
            "name": "tokenURI",
            "outputs": [
                {
                    "internalType": "string",
                    "name": "",
                    "type": "string"
                }
            ],
            "stateMutability": "view",
            "type": "function"
        },
        {
            "inputs": [
                {
                    "internalType": "address",
                    "name": "from",
                    "type": "address"
                },
                {
                    "internalType": "address",
                    "name": "to",
                    "type": "address"
                },
                {
                    "internalType": "uint256",
                    "name": "tokenId",
                    "type": "uint256"
                }
            ],
            "name": "transferFrom",
            "outputs": [],
            "stateMutability": "nonpayable",
            "type": "function"
        },
        {
            "inputs": [
                {
                    "internalType": "address",
                    "name": "newOwner",
                    "type": "address"
                }
            ],
            "name": "transferOwnership",
            "outputs": [],
            "stateMutability": "nonpayable",
            "type": "function"
        }
    ],
    "bytecode": "60a06040523480156200001157600080fd5b5060405162002beb38038062002beb833981016040819052620000349162000238565b604080518082018252600b81526a121bdb595cdd185e53919560aa1b6020808301918252835180850190945260048452631213919560e21b908401528151919291620000839160009162000192565b5080516200009990600190602084019062000192565b505050620000b6620000b06200013c60201b60201c565b62000140565b42608052600985905560005b858110156200012257600160088281548110620000e357620000e362000279565b90600052602060002090602091828204019190066101000a81548160ff021916908315150217905550808062000119906200028f565b915050620000c2565b50600a93909355600b91909155600c55600d5550620002f6565b3390565b600680546001600160a01b038381166001600160a01b0319831681179093556040519116919082907f8be0079c531659141344cd1fd0a4f28419497f9722a3daafe3b4186f6b6457e090600090a35050565b828054620001a090620002b9565b90600052602060002090601f016020900481019282620001c457600085556200020f565b82601f10620001df57805160ff19168380011785556200020f565b828001600101855582156200020f579182015b828111156200020f578251825591602001919060010190620001f2565b506200021d92915062000221565b5090565b5b808211156200021d576000815560010162000222565b600080600080600060a086880312156200025157600080fd5b5050835160208501516040860151606087015160809097015192989197509594509092509050565b634e487b7160e01b600052603260045260246000fd5b6000600019821415620002b257634e487b7160e01b600052601160045260246000fd5b5060010190565b600181811c90821680620002ce57607f821691505b60208210811415620002f057634e487b7160e01b600052602260045260246000fd5b50919050565b6080516128d9620003126000396000610c5c01526128d96000f3fe608060405234801561001057600080fd5b50600436106102115760003560e01c8063715018a611610125578063c87b56dd116100ad578063f08b6b891161007c578063f08b6b8914610542578063f2fde38b14610557578063f5ba5af91461056a578063f7a0fd021461057d578063faea173b1461059057600080fd5b8063c87b56dd146104d7578063c9060ecd146104ea578063d188929f146104f3578063e985e9c51461050657600080fd5b8063a22cb465116100f4578063a22cb465146103ed578063a3bd9af014610400578063a9381e69146104a9578063b1825738146104bc578063b88d4fde146104c457600080fd5b8063715018a6146103b75780638da5cb5b146103bf57806395d89b41146103d057806398d5fdca146103d857600080fd5b806318c2987d116101a857806342842e0e1161017757806342842e0e14610355578063557ed1ba146103685780635f15ffd01461037e5780636352211e1461039157806370a08231146103a457600080fd5b806318c2987d146102fa57806323b872dd1461030f57806328047450146103225780632c301b681461033557600080fd5b806306fdde03116101e457806306fdde0314610294578063081812fc146102a9578063095ea7b3146102d45780631519af48146102e757600080fd5b8063013778911461021657806301ffc9a7146102495780630261f3d71461026c57806306ef477b14610281575b600080fd5b610229610224366004611fd4565b6105a3565b604080519384529115156020840152908201526060015b60405180910390f35b61025c61025736600461200c565b6105e9565b6040519015158152602001610240565b61027f61027a366004612037565b61063b565b005b61027f61028f366004612067565b6106cb565b61029c6106e4565b60405161024091906120e7565b6102bc6102b73660046120fa565b610776565b6040516001600160a01b039091168152602001610240565b61027f6102e236600461212f565b61079d565b61027f6102f5366004612159565b6108b3565b610302610a01565b60405161024091906121d8565b61027f61031d36600461221c565b610a58565b61027f6103303660046120fa565b610a89565b6103486103433660046120fa565b610b7e565b6040516102409190612258565b61027f61036336600461221c565b610c3a565b610370610c55565b604051908152602001610240565b61025c61038c3660046120fa565b610c86565b6102bc61039f3660046120fa565b610cc2565b6103706103b23660046122b3565b610d22565b61027f610da8565b6006546001600160a01b03166102bc565b61029c610dbc565b6103e0610dcb565b60405161024091906122ce565b61027f6103fb3660046122ff565b610e01565b61046161040e3660046120fa565b601360205260009081526040902080546001820154600283015460038401546004850154600586015460068701546007909701546001600160a01b03968716979590961695939492939192909160ff1688565b604080516001600160a01b03998a168152989097166020890152958701949094526060860192909252608085015260a084015260c0830152151560e082015261010001610240565b61027f6104b73660046120fa565b610e0c565b610302610ed8565b61027f6104d2366004612341565b610f37565b61029c6104e53660046120fa565b610f6f565b61037060095481565b6104616105013660046120fa565b610f7a565b61025c61051436600461241d565b6001600160a01b03918216600090815260056020908152604080832093909416825291909152205460ff1690565b61054a61104e565b6040516102409190612450565b61027f6105653660046122b3565b6110c5565b61027f61057836600461248a565b61113e565b61027f61058b366004612508565b6115b8565b61037061059e3660046120fa565b6116a8565b601460205281600052604060002081815481106105bf57600080fd5b600091825260209091206003909102018054600182015460029092015490935060ff909116915083565b60006001600160e01b031982166380ac58cd60e01b148061061a57506001600160e01b03198216635b5e139f60e01b145b8061063557506301ffc9a760e01b6001600160e01b03198316145b92915050565b6106436116bf565b6000821161068a5760405162461bcd60e51b815260206004820152600f60248201526e125b9d985b1a59081c9bdbdb481a59608a1b60448201526064015b60405180910390fd5b806008838154811061069e5761069e612574565b90600052602060002090602091828204019190066101000a81548160ff0219169083151502179055505050565b6106d36116bf565b6106e0600a826004611f63565b5050565b6060600080546106f39061258a565b80601f016020809104026020016040519081016040528092919081815260200182805461071f9061258a565b801561076c5780601f106107415761010080835404028352916020019161076c565b820191906000526020600020905b81548152906001019060200180831161074f57829003601f168201915b5050505050905090565b600061078182611719565b506000908152600460205260409020546001600160a01b031690565b60006107a882610cc2565b9050806001600160a01b0316836001600160a01b031614156108165760405162461bcd60e51b815260206004820152602160248201527f4552433732313a20617070726f76616c20746f2063757272656e74206f776e656044820152603960f91b6064820152608401610681565b336001600160a01b038216148061083257506108328133610514565b6108a45760405162461bcd60e51b815260206004820152603e60248201527f4552433732313a20617070726f76652063616c6c6572206973206e6f7420746f60448201527f6b656e206f776e6572206e6f7220617070726f76656420666f7220616c6c00006064820152608401610681565b6108ae8383611778565b505050565b6000838152600260205260409020546001600160a01b03166108e75760405162461bcd60e51b8152600401610681906125bf565b336108f184610cc2565b6001600160a01b0316146109535760405162461bcd60e51b815260206004820152602360248201527f596f7520617265206e6f7420746865206f776e6572206f66207468697320746f60448201526235b2b760e91b6064820152608401610681565b60005b818110156109c157600084815260146020526040902083838381811061097e5761097e612574565b8354600181018555600094855260209094206060909102929092019260030290910190506109ac82826125f6565b505080806109b990612643565b915050610956565b50827fbfcbf94e47a80ca0502bde6e4e81144ad1d70a8ca634970a1af26d7fb085f05083836040516109f492919061265e565b60405180910390a2505050565b6060600f80548060200260200160405190810160405280929190818152602001828054801561076c57602002820191906000526020600020905b815481526020019060010190808311610a3b575050505050905090565b610a6233826117e6565b610a7e5760405162461bcd60e51b8152600401610681906126ba565b6108ae838383611865565b610a9281610cc2565b6001600160a01b0316336001600160a01b031614610af25760405162461bcd60e51b815260206004820152601860248201527f596f7520617265206e6f7420726f6f6d2773206f776e657200000000000000006044820152606401610681565b60106000610b086006546001600160a01b031690565b6001600160a01b0316815260208101919091526040016000908120805491610b2f83612708565b9091555050336000908152600e60205260408120805491610b4f83612708565b9190505550610b6033600083610a58565b6000908152601360205260409020600701805460ff19166001179055565b6000818152600260205260409020546060906001600160a01b0316610bb55760405162461bcd60e51b8152600401610681906125bf565b600082815260146020908152604080832080548251818502810185019093528083529193909284015b82821015610c2f57600084815260209081902060408051606081018252600386029092018054835260018082015460ff16151584860152600290910154918301919091529083529092019101610bde565b505050509050919050565b6108ae83838360405180602001604052806000815250610f37565b6000610c817f00000000000000000000000000000000000000000000000000000000000000004261271f565b905090565b600060088281548110610c9b57610c9b612574565b90600052602060002090602091828204019190069054906101000a900460ff169050919050565b6000818152600260205260408120546001600160a01b0316806106355760405162461bcd60e51b8152602060048201526018602482015277115490cdcc8c4e881a5b9d985b1a59081d1bdad95b88125160421b6044820152606401610681565b60006001600160a01b038216610d8c5760405162461bcd60e51b815260206004820152602960248201527f4552433732313a2061646472657373207a65726f206973206e6f7420612076616044820152683634b21037bbb732b960b91b6064820152608401610681565b506001600160a01b031660009081526003602052604090205490565b610db06116bf565b610dba6000611a01565b565b6060600180546106f39061258a565b610dd3611fa1565b604080516080810191829052600a805482529091600490600b60208501808311610a3b575050505050905090565b6106e0338383611a53565b6009548111610e755760405162461bcd60e51b815260206004820152602f60248201527f4e756d626572206f6620726f6f6d73206d75737420626520677265617465722060448201526e1d1a185b88185d081c1c995cd95b9d608a1b6064820152608401610681565b6009545b81811015610ed257600160088281548110610e9657610e96612574565b90600052602060002090602091828204019190066101000a81548160ff0219169083151502179055508080610eca90612643565b915050610e79565b50600955565b3360009081526011602090815260409182902080548351818402810184019094528084526060939283018282801561076c5760200282019190600052602060002090815481526020019060010190808311610a3b575050505050905090565b610f4133836117e6565b610f5d5760405162461bcd60e51b8152600401610681906126ba565b610f6984848484611b22565b50505050565b606061063582611b55565b60008080808080808080610f8d8a610cc2565b6001600160a01b03161415610fb45760405162461bcd60e51b8152600401610681906125bf565b505050600095865250506013602090815260409485902085516101008101875281546001600160a01b0390811680835260018401549091169382018490526002830154978201889052600383015460608301819052600484015460808401819052600585015460a08501819052600686015460c0860181905260079096015460ff16151560e0909501859052929a95999850909650945092565b6060600880548060200260200160405190810160405280929190818152602001828054801561076c57602002820191906000526020600020906000905b825461010083900a900460ff16151581526020600192830181810494850194909303909202910180841161108b5790505050505050905090565b6110cd6116bf565b6001600160a01b0381166111325760405162461bcd60e51b815260206004820152602660248201527f4f776e61626c653a206e6577206f776e657220697320746865207a65726f206160448201526564647265737360d01b6064820152608401610681565b61113b81611a01565b50565b6008848154811061115157611151612574565b90600052602060002090602091828204019190069054906101000a900460ff16151560011515146111c45760405162461bcd60e51b815260206004820152601a60248201527f5468697320726f6f6d206973206e6f7420617661696c61626c650000000000006044820152606401610681565b60006111cf60075490565b905060006111dd848461271f565b9050600081116112245760405162461bcd60e51b8152602060048201526012602482015271496e76616c69642074696d657374616d707360701b6044820152606401610681565b6000611c20821161123957600a549550611380565b611c208211801561124d5750620151808211155b15611285576000611260611c208461271f565b600b549091506112709082612736565b600a5461127d9190612755565b915050611380565b620151808211801561129a575062278d008211155b156112ef5760006112ae6201518084612783565b905060006112bf6201518085612797565b600b549091506112cf9082612736565b600c546112dc9084612736565b6112e69190612755565b92505050611380565b60006112fe62278d0084612783565b905060006201518061131362278d0086612797565b61131d9190612783565b905060006201518061133262278d0087612797565b61133c9190612797565b600b5490915061134c9082612736565b600c546113599084612736565b600d546113669086612736565b6113709190612755565b61137a9190612755565b93505050505b6006546001600160a01b03163314611396578095505b6040518061010001604052806113b46006546001600160a01b031690565b6001600160a01b03908116825233602080840182905260408085018d905260608086018d905260808087018d905260a08088018d90524260c0808a0191909152600060e0998a018190528d8152601387528581208b5181546001600160a01b0319908116918c169190911782558c8901516001808401805490931691909c161790558b8701516002820155948b01516003860155928a01516004850155908901516005840155880151600683015596909501516007958601805460ff1916911515919091179055600f80548086019091557f8d1108e10bcb7c27dddfc02ed9d693a074039d026cf4ea4240b40f7d581ac802018990559185526011815290842080548084018255908552932090920185905580549091019055601060006114e36006546001600160a01b031690565b6001600160a01b031681526020810191909152604001600090812080549161150a83612643565b9091555050336000908152600e6020526040812080549161152a83612643565b91905055506115393384611bc9565b823361154d6006546001600160a01b031690565b604080518b8152602081018b905290810189905260608101889052426080820152600060a08201526001600160a01b0391909116907ff61f97f724a6f7393572b004f5ffa9a98175b4a78662e034913f09f232328b1d9060c00160405180910390a450505050505050565b6115c06116bf565b8281146116085760405162461bcd60e51b8152602060048201526016602482015275082e4e4c2f2e640d8cadccee8d040dad2e6dac2e8c6d60531b6044820152606401610681565b60005b838110156116a15782828281811061162557611625612574565b905060200201602081019061163a91906127ab565b600886868481811061164e5761164e612574565b905060200201358154811061166557611665612574565b90600052602060002090602091828204019190066101000a81548160ff021916908315150217905550808061169990612643565b91505061160b565b5050505050565b600a81600481106116b857600080fd5b0154905081565b6006546001600160a01b03163314610dba5760405162461bcd60e51b815260206004820181905260248201527f4f776e61626c653a2063616c6c6572206973206e6f7420746865206f776e65726044820152606401610681565b6000818152600260205260409020546001600160a01b031661113b5760405162461bcd60e51b8152602060048201526018602482015277115490cdcc8c4e881a5b9d985b1a59081d1bdad95b88125160421b6044820152606401610681565b600081815260046020526040902080546001600160a01b0319166001600160a01b03841690811790915581906117ad82610cc2565b6001600160a01b03167f8c5be1e5ebec7d5bd14f71427d1e84f3dd0314c0f7b2291e5b200ac8c7c3b92560405160405180910390a45050565b6000806117f283610cc2565b9050806001600160a01b0316846001600160a01b0316148061183957506001600160a01b0380821660009081526005602090815260408083209388168352929052205460ff165b8061185d5750836001600160a01b031661185284610776565b6001600160a01b0316145b949350505050565b826001600160a01b031661187882610cc2565b6001600160a01b0316146118dc5760405162461bcd60e51b815260206004820152602560248201527f4552433732313a207472616e736665722066726f6d20696e636f72726563742060448201526437bbb732b960d91b6064820152608401610681565b6001600160a01b03821661193e5760405162461bcd60e51b8152602060048201526024808201527f4552433732313a207472616e7366657220746f20746865207a65726f206164646044820152637265737360e01b6064820152608401610681565b611949600082611778565b6001600160a01b038316600090815260036020526040812080546001929061197290849061271f565b90915550506001600160a01b03821660009081526003602052604081208054600192906119a0908490612755565b909155505060008181526002602052604080822080546001600160a01b0319166001600160a01b0386811691821790925591518493918716917fddf252ad1be2c89b69c2b068fc378daa952ba7f163c4a11628f55a4df523b3ef91a4505050565b600680546001600160a01b038381166001600160a01b0319831681179093556040519116919082907f8be0079c531659141344cd1fd0a4f28419497f9722a3daafe3b4186f6b6457e090600090a35050565b816001600160a01b0316836001600160a01b03161415611ab55760405162461bcd60e51b815260206004820152601960248201527f4552433732313a20617070726f766520746f2063616c6c6572000000000000006044820152606401610681565b6001600160a01b03838116600081815260056020908152604080832094871680845294825291829020805460ff191686151590811790915591519182527f17307eab39ab6107e8899845ad3d59bd9653f200f220920489ca2b5937696c31910160405180910390a3505050565b611b2d848484611865565b611b3984848484611be3565b610f695760405162461bcd60e51b8152600401610681906127c8565b6060611b6082611719565b6000611b7760408051602081019091526000815290565b90506000815111611b975760405180602001604052806000815250611bc2565b80611ba184611cf0565b604051602001611bb292919061281a565b6040516020818303038152906040525b9392505050565b6106e0828260405180602001604052806000815250611dee565b60006001600160a01b0384163b15611ce557604051630a85bd0160e11b81526001600160a01b0385169063150b7a0290611c27903390899088908890600401612849565b602060405180830381600087803b158015611c4157600080fd5b505af1925050508015611c71575060408051601f3d908101601f19168201909252611c6e91810190612886565b60015b611ccb573d808015611c9f576040519150601f19603f3d011682016040523d82523d6000602084013e611ca4565b606091505b508051611cc35760405162461bcd60e51b8152600401610681906127c8565b805181602001fd5b6001600160e01b031916630a85bd0160e11b14905061185d565b506001949350505050565b606081611d145750506040805180820190915260018152600360fc1b602082015290565b8160005b8115611d3e5780611d2881612643565b9150611d379050600a83612783565b9150611d18565b60008167ffffffffffffffff811115611d5957611d5961232b565b6040519080825280601f01601f191660200182016040528015611d83576020820181803683370190505b5090505b841561185d57611d9860018361271f565b9150611da5600a86612797565b611db0906030612755565b60f81b818381518110611dc557611dc5612574565b60200101906001600160f81b031916908160001a905350611de7600a86612783565b9450611d87565b611df88383611e21565b611e056000848484611be3565b6108ae5760405162461bcd60e51b8152600401610681906127c8565b6001600160a01b038216611e775760405162461bcd60e51b815260206004820181905260248201527f4552433732313a206d696e7420746f20746865207a65726f20616464726573736044820152606401610681565b6000818152600260205260409020546001600160a01b031615611edc5760405162461bcd60e51b815260206004820152601c60248201527f4552433732313a20746f6b656e20616c7265616479206d696e746564000000006044820152606401610681565b6001600160a01b0382166000908152600360205260408120805460019290611f05908490612755565b909155505060008181526002602052604080822080546001600160a01b0319166001600160a01b03861690811790915590518392907fddf252ad1be2c89b69c2b068fc378daa952ba7f163c4a11628f55a4df523b3ef908290a45050565b8260048101928215611f91579160200282015b82811115611f91578235825591602001919060010190611f76565b50611f9d929150611fbf565b5090565b60405180608001604052806004906020820280368337509192915050565b5b80821115611f9d5760008155600101611fc0565b60008060408385031215611fe757600080fd5b50508035926020909101359150565b6001600160e01b03198116811461113b57600080fd5b60006020828403121561201e57600080fd5b8135611bc281611ff6565b801515811461113b57600080fd5b6000806040838503121561204a57600080fd5b82359150602083013561205c81612029565b809150509250929050565b60006080828403121561207957600080fd5b8260808301111561208957600080fd5b50919050565b60005b838110156120aa578181015183820152602001612092565b83811115610f695750506000910152565b600081518084526120d381602086016020860161208f565b601f01601f19169290920160200192915050565b602081526000611bc260208301846120bb565b60006020828403121561210c57600080fd5b5035919050565b80356001600160a01b038116811461212a57600080fd5b919050565b6000806040838503121561214257600080fd5b61214b83612113565b946020939093013593505050565b60008060006040848603121561216e57600080fd5b83359250602084013567ffffffffffffffff8082111561218d57600080fd5b818601915086601f8301126121a157600080fd5b8135818111156121b057600080fd5b8760206060830285010111156121c557600080fd5b6020830194508093505050509250925092565b6020808252825182820181905260009190848201906040850190845b81811015612210578351835292840192918401916001016121f4565b50909695505050505050565b60008060006060848603121561223157600080fd5b61223a84612113565b925061224860208501612113565b9150604084013590509250925092565b602080825282518282018190526000919060409081850190868401855b828110156122a657815180518552868101511515878601528501518585015260609093019290850190600101612275565b5091979650505050505050565b6000602082840312156122c557600080fd5b611bc282612113565b60808101818360005b60048110156122f65781518352602092830192909101906001016122d7565b50505092915050565b6000806040838503121561231257600080fd5b61231b83612113565b9150602083013561205c81612029565b634e487b7160e01b600052604160045260246000fd5b6000806000806080858703121561235757600080fd5b61236085612113565b935061236e60208601612113565b925060408501359150606085013567ffffffffffffffff8082111561239257600080fd5b818701915087601f8301126123a657600080fd5b8135818111156123b8576123b861232b565b604051601f8201601f19908116603f011681019083821181831017156123e0576123e061232b565b816040528281528a60208487010111156123f957600080fd5b82602086016020830137600060208483010152809550505050505092959194509250565b6000806040838503121561243057600080fd5b61243983612113565b915061244760208401612113565b90509250929050565b6020808252825182820181905260009190848201906040850190845b8181101561221057835115158352928401929184019160010161246c565b600080600080608085870312156124a057600080fd5b5050823594602084013594506040840135936060013592509050565b60008083601f8401126124ce57600080fd5b50813567ffffffffffffffff8111156124e657600080fd5b6020830191508360208260051b850101111561250157600080fd5b9250929050565b6000806000806040858703121561251e57600080fd5b843567ffffffffffffffff8082111561253657600080fd5b612542888389016124bc565b9096509450602087013591508082111561255b57600080fd5b50612568878288016124bc565b95989497509550505050565b634e487b7160e01b600052603260045260246000fd5b600181811c9082168061259e57607f821691505b6020821081141561208957634e487b7160e01b600052602260045260246000fd5b60208082526017908201527f546f6b656e20494420646f6573206e6f74206578697374000000000000000000604082015260600190565b8135815560018101602083013561260c81612029565b60ff1982541660ff8215151681178355505050604082013560028201555050565b634e487b7160e01b600052601160045260246000fd5b60006000198214156126575761265761262d565b5060010190565b6020808252818101839052600090604080840186845b878110156126ad57813583528482013561268d81612029565b151583860152818401358484015260609283019290910190600101612674565b5090979650505050505050565b6020808252602e908201527f4552433732313a2063616c6c6572206973206e6f7420746f6b656e206f776e6560408201526d1c881b9bdc88185c1c1c9bdd995960921b606082015260800190565b6000816127175761271761262d565b506000190190565b6000828210156127315761273161262d565b500390565b60008160001904831182151516156127505761275061262d565b500290565b600082198211156127685761276861262d565b500190565b634e487b7160e01b600052601260045260246000fd5b6000826127925761279261276d565b500490565b6000826127a6576127a661276d565b500690565b6000602082840312156127bd57600080fd5b8135611bc281612029565b60208082526032908201527f4552433732313a207472616e7366657220746f206e6f6e20455243373231526560408201527131b2b4bb32b91034b6b83632b6b2b73a32b960711b606082015260800190565b6000835161282c81846020880161208f565b83519083019061284081836020880161208f565b01949350505050565b6001600160a01b038581168252841660208201526040810183905260806060820181905260009061287c908301846120bb565b9695505050505050565b60006020828403121561289857600080fd5b8151611bc281611ff656fea2646970667358221220d22241cfe36cc966176a1d5e82cfae69cc37d7847e3fbae05eb024343a96dcdd64736f6c63430008090033",
    "sourcePath": "d:/DoAnTotNghiep/testContract/thirdweb-contracts/contracts/HomestayNFT.sol",
    "compiler": {
        "name": "solc",
        "version": "0.8.9+commit.e5eed63a"
    },
    "functionHashes": {
        "_logIoTdevices(uint256,uint256)": "01377891",
        "_nfts(uint256)": "a3bd9af0",
        "_noRooms()": "c9060ecd",
        "_price(uint256)": "faea173b",
        "approve(address,uint256)": "095ea7b3",
        "balanceOf(address)": "70a08231",
        "cancelContract(uint256)": "28047450",
        "checkout(uint256,(uint256,bool,uint256)[])": "1519af48",
        "getAllRoomsValidity()": "f08b6b89",
        "getApproved(uint256)": "081812fc",
        "getLogsForToken(uint256)": "2c301b68",
        "getNFTInfo(uint256)": "d188929f",
        "getNftsIdOfProvider()": "18c2987d",
        "getNftsIdOfRenter()": "b1825738",
        "getPrice()": "98d5fdca",
        "getRoomValidity(uint256)": "5f15ffd0",
        "getTime()": "557ed1ba",
        "isApprovedForAll(address,address)": "e985e9c5",
        "name()": "06fdde03",
        "owner()": "8da5cb5b",
        "ownerOf(uint256)": "6352211e",
        "renounceOwnership()": "715018a6",
        "safeMint(uint256,uint256,uint256,uint256)": "f5ba5af9",
        "safeTransferFrom(address,address,uint256)": "42842e0e",
        "safeTransferFrom(address,address,uint256,bytes)": "b88d4fde",
        "setApprovalForAll(address,bool)": "a22cb465",
        "setMultipleRoomsValidity(uint256[],bool[])": "f7a0fd02",
        "setNoRooms(uint256)": "a9381e69",
        "setPrice(uint256[4])": "06ef477b",
        "setRoomValidity(uint256,bool)": "0261f3d7",
        "supportsInterface(bytes4)": "01ffc9a7",
        "symbol()": "95d89b41",
        "tokenURI(uint256)": "c87b56dd",
        "transferFrom(address,address,uint256)": "23b872dd",
        "transferOwnership(address)": "f2fde38b"
    },
    "gasEstimates": {
        "creation": {
            "codeDepositCost": "2091400",
            "executionCost": "infinite",
            "totalCost": "infinite"
        },
        "external": {
            "_logIoTdevices(uint256,uint256)": "8997",
            "_nfts(uint256)": "17511",
            "_noRooms()": "2362",
            "_price(uint256)": "2550",
            "approve(address,uint256)": "infinite",
            "balanceOf(address)": "2722",
            "cancelContract(uint256)": "infinite",
            "checkout(uint256,(uint256,bool,uint256)[])": "infinite",
            "getAllRoomsValidity()": "infinite",
            "getApproved(uint256)": "4792",
            "getLogsForToken(uint256)": "infinite",
            "getNFTInfo(uint256)": "20059",
            "getNftsIdOfProvider()": "infinite",
            "getNftsIdOfRenter()": "infinite",
            "getPrice()": "infinite",
            "getRoomValidity(uint256)": "6336",
            "getTime()": "infinite",
            "isApprovedForAll(address,address)": "infinite",
            "name()": "infinite",
            "owner()": "2399",
            "ownerOf(uint256)": "2649",
            "renounceOwnership()": "infinite",
            "safeMint(uint256,uint256,uint256,uint256)": "infinite",
            "safeTransferFrom(address,address,uint256)": "infinite",
            "safeTransferFrom(address,address,uint256,bytes)": "infinite",
            "setApprovalForAll(address,bool)": "26760",
            "setMultipleRoomsValidity(uint256[],bool[])": "infinite",
            "setNoRooms(uint256)": "infinite",
            "setPrice(uint256[4])": "infinite",
            "setRoomValidity(uint256,bool)": "30672",
            "supportsInterface(bytes4)": "590",
            "symbol()": "infinite",
            "tokenURI(uint256)": "infinite",
            "transferFrom(address,address,uint256)": "infinite",
            "transferOwnership(address)": "28402"
        }
    }
}